{
    "_format": "hh-sol-artifact-1",
    "contractName": "Coffee",
    "sourceName": "contracts/BuyMeCoffee.sol",
    "abi": [
        {
            "inputs": [],
            "stateMutability": "nonpayable",
            "type": "constructor"
        },
        {
            "inputs": [
                {
                    "internalType": "string",
                    "name": "name",
                    "type": "string"
                },
                {
                    "internalType": "string",
                    "name": "message",
                    "type": "string"
                }
            ],
            "name": "buyCoffee",
            "outputs": [],
            "stateMutability": "payable",
            "type": "function"
        },
        {
            "inputs": [],
            "name": "getMemos",
            "outputs": [
                {
                    "components": [
                        {
                            "internalType": "string",
                            "name": "name",
                            "type": "string"
                        },
                        {
                            "internalType": "string",
                            "name": "message",
                            "type": "string"
                        },
                        {
                            "internalType": "uint256",
                            "name": "timestamp",
                            "type": "uint256"
                        },
                        {
                            "internalType": "address",
                            "name": "from",
                            "type": "address"
                        }
                    ],
                    "internalType": "struct Coffee.Memo[]",
                    "name": "",
                    "type": "tuple[]"
                }
            ],
            "stateMutability": "view",
            "type": "function"
        },
        {
            "inputs": [
                {
                    "internalType": "uint256",
                    "name": "",
                    "type": "uint256"
                }
            ],
            "name": "memos",
            "outputs": [
                {
                    "internalType": "string",
                    "name": "name",
                    "type": "string"
                },
                {
                    "internalType": "string",
                    "name": "message",
                    "type": "string"
                },
                {
                    "internalType": "uint256",
                    "name": "timestamp",
                    "type": "uint256"
                },
                {
                    "internalType": "address",
                    "name": "from",
                    "type": "address"
                }
            ],
            "stateMutability": "view",
            "type": "function"
        },
        {
            "inputs": [],
            "name": "owner",
            "outputs": [
                {
                    "internalType": "address payable",
                    "name": "",
                    "type": "address"
                }
            ],
            "stateMutability": "view",
            "type": "function"
        }
    ],
    "bytecode": "0x608060405234801561001057600080fd5b5033600160006101000a81548173ffffffffffffffffffffffffffffffffffffffff021916908373ffffffffffffffffffffffffffffffffffffffff160217905550610ec9806100616000396000f3fe60806040526004361061003f5760003560e01c8063204206e114610044578063865c5172146100605780638da5cb5b1461008b578063e8dfdf04146100b6575b600080fd5b61005e6004803603810190610059919061075a565b6100f6565b005b34801561006c57600080fd5b50610075610287565b60405161008291906109d7565b60405180910390f35b34801561009757600080fd5b506100a061046a565b6040516100ad9190610a1a565b60405180910390f35b3480156100c257600080fd5b506100dd60048036038101906100d89190610a61565b610490565b6040516100ed9493929190610af6565b60405180910390f35b60003411610139576040517f08c379a000000000000000000000000000000000000000000000000000000000815260040161013090610b95565b60405180910390fd5b600160009054906101000a900473ffffffffffffffffffffffffffffffffffffffff1673ffffffffffffffffffffffffffffffffffffffff166108fc349081150290604051600060405180830381858888f193505050501580156101a1573d6000803e3d6000fd5b50600060405180608001604052808481526020018381526020014281526020013373ffffffffffffffffffffffffffffffffffffffff16815250908060018154018082558091505060019003906000526020600020906004020160009091909190915060008201518160000190816102199190610dc1565b50602082015181600101908161022f9190610dc1565b506040820151816002015560608201518160030160006101000a81548173ffffffffffffffffffffffffffffffffffffffff021916908373ffffffffffffffffffffffffffffffffffffffff16021790555050505050565b60606000805480602002602001604051908101604052809291908181526020016000905b8282101561046157838290600052602060002090600402016040518060800160405290816000820180546102de90610be4565b80601f016020809104026020016040519081016040528092919081815260200182805461030a90610be4565b80156103575780601f1061032c57610100808354040283529160200191610357565b820191906000526020600020905b81548152906001019060200180831161033a57829003601f168201915b5050505050815260200160018201805461037090610be4565b80601f016020809104026020016040519081016040528092919081815260200182805461039c90610be4565b80156103e95780601f106103be576101008083540402835291602001916103e9565b820191906000526020600020905b8154815290600101906020018083116103cc57829003601f168201915b50505050508152602001600282015481526020016003820160009054906101000a900473ffffffffffffffffffffffffffffffffffffffff1673ffffffffffffffffffffffffffffffffffffffff1673ffffffffffffffffffffffffffffffffffffffff1681525050815260200190600101906102ab565b50505050905090565b600160009054906101000a900473ffffffffffffffffffffffffffffffffffffffff1681565b600081815481106104a057600080fd5b90600052602060002090600402016000915090508060000180546104c390610be4565b80601f01602080910402602001604051908101604052809291908181526020018280546104ef90610be4565b801561053c5780601f106105115761010080835404028352916020019161053c565b820191906000526020600020905b81548152906001019060200180831161051f57829003601f168201915b50505050509080600101805461055190610be4565b80601f016020809104026020016040519081016040528092919081815260200182805461057d90610be4565b80156105ca5780601f1061059f576101008083540402835291602001916105ca565b820191906000526020600020905b8154815290600101906020018083116105ad57829003601f168201915b5050505050908060020154908060030160009054906101000a900473ffffffffffffffffffffffffffffffffffffffff16905084565b6000604051905090565b600080fd5b600080fd5b600080fd5b600080fd5b6000601f19601f8301169050919050565b7f4e487b7100000000000000000000000000000000000000000000000000000000600052604160045260246000fd5b6106678261061e565b810181811067ffffffffffffffff821117156106865761068561062f565b5b80604052505050565b6000610699610600565b90506106a5828261065e565b919050565b600067ffffffffffffffff8211156106c5576106c461062f565b5b6106ce8261061e565b9050602081019050919050565b82818337600083830152505050565b60006106fd6106f8846106aa565b61068f565b90508281526020810184848401111561071957610718610619565b5b6107248482856106db565b509392505050565b600082601f83011261074157610740610614565b5b81356107518482602086016106ea565b91505092915050565b600080604083850312156107715761077061060a565b5b600083013567ffffffffffffffff81111561078f5761078e61060f565b5b61079b8582860161072c565b925050602083013567ffffffffffffffff8111156107bc576107bb61060f565b5b6107c88582860161072c565b9150509250929050565b600081519050919050565b600082825260208201905092915050565b6000819050602082019050919050565b600081519050919050565b600082825260208201905092915050565b60005b8381101561083857808201518184015260208101905061081d565b60008484015250505050565b600061084f826107fe565b6108598185610809565b935061086981856020860161081a565b6108728161061e565b840191505092915050565b6000819050919050565b6108908161087d565b82525050565b600073ffffffffffffffffffffffffffffffffffffffff82169050919050565b60006108c182610896565b9050919050565b6108d1816108b6565b82525050565b600060808301600083015184820360008601526108f48282610844565b9150506020830151848203602086015261090e8282610844565b91505060408301516109236040860182610887565b50606083015161093660608601826108c8565b508091505092915050565b600061094d83836108d7565b905092915050565b6000602082019050919050565b600061096d826107d2565b61097781856107dd565b935083602082028501610989856107ee565b8060005b858110156109c557848403895281516109a68582610941565b94506109b183610955565b925060208a0199505060018101905061098d565b50829750879550505050505092915050565b600060208201905081810360008301526109f18184610962565b905092915050565b6000610a0482610896565b9050919050565b610a14816109f9565b82525050565b6000602082019050610a2f6000830184610a0b565b92915050565b610a3e8161087d565b8114610a4957600080fd5b50565b600081359050610a5b81610a35565b92915050565b600060208284031215610a7757610a7661060a565b5b6000610a8584828501610a4c565b91505092915050565b600082825260208201905092915050565b6000610aaa826107fe565b610ab48185610a8e565b9350610ac481856020860161081a565b610acd8161061e565b840191505092915050565b610ae18161087d565b82525050565b610af0816108b6565b82525050565b60006080820190508181036000830152610b108187610a9f565b90508181036020830152610b248186610a9f565b9050610b336040830185610ad8565b610b406060830184610ae7565b95945050505050565b7f506c65617365207061792067726561746572207468616e203020657468657200600082015250565b6000610b7f601f83610a8e565b9150610b8a82610b49565b602082019050919050565b60006020820190508181036000830152610bae81610b72565b9050919050565b7f4e487b7100000000000000000000000000000000000000000000000000000000600052602260045260246000fd5b60006002820490506001821680610bfc57607f821691505b602082108103610c0f57610c0e610bb5565b5b50919050565b60008190508160005260206000209050919050565b60006020601f8301049050919050565b600082821b905092915050565b600060088302610c777fffffffffffffffffffffffffffffffffffffffffffffffffffffffffffffffff82610c3a565b610c818683610c3a565b95508019841693508086168417925050509392505050565b6000819050919050565b6000610cbe610cb9610cb48461087d565b610c99565b61087d565b9050919050565b6000819050919050565b610cd883610ca3565b610cec610ce482610cc5565b848454610c47565b825550505050565b600090565b610d01610cf4565b610d0c818484610ccf565b505050565b5b81811015610d3057610d25600082610cf9565b600181019050610d12565b5050565b601f821115610d7557610d4681610c15565b610d4f84610c2a565b81016020851015610d5e578190505b610d72610d6a85610c2a565b830182610d11565b50505b505050565b600082821c905092915050565b6000610d9860001984600802610d7a565b1980831691505092915050565b6000610db18383610d87565b9150826002028217905092915050565b610dca826107fe565b67ffffffffffffffff811115610de357610de261062f565b5b610ded8254610be4565b610df8828285610d34565b600060209050601f831160018114610e2b5760008415610e19578287015190505b610e238582610da5565b865550610e8b565b601f198416610e3986610c15565b60005b82811015610e6157848901518255600182019150602085019450602081019050610e3c565b86831015610e7e5784890151610e7a601f891682610d87565b8355505b6001600288020188555050505b50505050505056fea26469706673582212208c281fdfe026bb7541821e7091a57f62688043bb0d306a3cdc0d29144d7b092864736f6c63430008110033",
    "linkReferences": {},
    "deployedLinkReferences": {}
}